:020000040800F2
:100000000020002091350008593500085B350008B4
:1000100000000000000000000000000000000000E0
:100020000000000000000000000000005D35000836
:1000300000000000000000005F3500086135000886
:10004000E135000869350008E1350008E1350008B0
:10005000E1350008E1350008E1350008E135000828
:1000600000000000E1350008E1350008E135000836
:10007000E1350008E1350008E1350008E135000808
:10008000E1350008E1350008E1350008E1350008F8
:1000900000000000E1350008E1350008E135000806
:1000A000E1350008E1350008E1350008E1350008D8
:0C00B00071350008E13500080000000078
:1000BC0010B5064C2378002B07D1054B002B02D032
:1000CC00044800E000BF0123237010BD3C04002055
:1000DC0000000000D4370008044B10B5002B03D0EF
:1000EC000349044800E000BF10BDC04600000000FA
:1000FC0040040020D4370008002243088B4274D3FC
:10010C0003098B425FD3030A8B4244D3030B8B420C
:10011C0028D3030C8B420DD3FF22090212BA030C15
:10012C008B4202D31212090265D0030B8B4219D3F6
:10013C0000E0090AC30B8B4201D3CB03C01A524116
:10014C00830B8B4201D38B03C01A5241430B8B425E
:10015C0001D34B03C01A5241030B8B4201D30B0347
:10016C00C01A5241C30A8B4201D3CB02C01A52416E
:10017C00830A8B4201D38B02C01A5241430A8B4231
:10018C0001D34B02C01A5241030A8B4201D30B021A
:10019C00C01A5241CDD2C3098B4201D3CB01C01A34
:1001AC00524183098B4201D38B01C01A524143093E
:1001BC008B4201D34B01C01A524103098B4201D32C
:1001CC000B01C01A5241C3088B4201D3CB00C01A99
:1001DC00524183088B4201D38B00C01A5241430811
:1001EC008B4201D34B00C01A5241411A00D2014636
:1001FC00524110467047FFE701B5002000F0F0F8BF
:10020C0002BDC0460029F7D076E7704703460B4382
:10021C007FD4002243088B4274D303098B425FD3F3
:10022C00030A8B4244D3030B8B4228D3030C8B421F
:10023C000DD3FF22090212BA030C8B4202D3121205
:10024C00090265D0030B8B4219D300E0090AC30BDA
:10025C008B4201D3CB03C01A5241830B8B4201D387
:10026C008B03C01A5241430B8B4201D34B03C01A70
:10027C005241030B8B4201D30B03C01A5241C30AE8
:10028C008B4201D3CB02C01A5241830A8B4201D359
:10029C008B02C01A5241430A8B4201D34B02C01A43
:1002AC005241030A8B4201D30B02C01A5241CDD2E8
:1002BC00C3098B4201D3CB01C01A524183098B4233
:1002CC0001D38B01C01A524143098B4201D34B011C
:1002DC00C01A524103098B4201D30B01C01A52417F
:1002EC00C3088B4201D3CB00C01A524183088B4206
:1002FC0001D38B00C01A524143088B4201D34B00EF
:10030C00C01A5241411A00D2014652411046704760
:10031C005DE0CA0F00D04942031000D34042534065
:10032C0000229C4603098B422DD3030A8B4212D325
:10033C00FC22890112BA030A8B420CD38901921157
:10034C008B4208D3890192118B4204D389013AD094
:10035C00921100E08909C3098B4201D3CB01C01A69
:10036C00524183098B4201D38B01C01A524143097C
:10037C008B4201D34B01C01A524103098B4201D36A
:10038C000B01C01A5241C3088B4201D3CB00C01AD7
:10039C00524183088B4201D38B00C01A5241D9D2EF
:1003AC0043088B4201D34B00C01A5241411A00D270
:1003BC000146634652415B10104601D34042002B6C
:1003CC0000D54942704763465B1000D3404201B5EB
:1003DC00002000F005F802BD0029F8D016E77047A0
:1003EC007047C046002B11D1002A0FD1002900D133
:1003FC00002802D00021C943081C07B4024802A1FE
:10040C004018029003BDC046D9FFFFFF03B46846F5
:10041C0001B5029800F006F8019B9E4602B00CBC98
:10042C007047C046F0B557464E464546DE46E0B5E9
:10043C0004000D009246994683B08B4230D82DD0E3
:10044C004946504600F0D8F829000600200000F07C
:10045C00D3F8331A9846203B9B4633D45A4653461E
:10046C00934042461F00534693401E00AF423AD879
:10047C00AF4200D178E05B46A41BBD41002B00DAF3
:10048C0075E0002200230092019301235A46934009
:10049C000193012342469340009328E08242CFD936
:1004AC0000220023009201930C9B002B01D01C60B6
:1004BC005D600098019903B0F0BCBB46B246A946FA
:1004CC00A046F0BD424620239B1A5246DA404146D4
:1004DC0013004A468A40170042461F435346934036
:1004EC001E00AF42C4D90022002300920193434660
:1004FC00002BD9D0FB0772081A4346467B080EE046
:10050C00AB4201D1A2420CD8A41A9D41012024195E
:10051C006D410021013E24184D41002E06D0AB4206
:10052C00EED9013E24196D41002EF8D100980199A5
:10053C005B4600196941002B24DB2B005A464446CC
:10054C00D3402A00E2401C005B461500002B2ADB3E
:10055C0026009E40330026004746BE403200801ADB
:10056C009941009001919FE7A342BCD883E7424692
:10057C00202300219B1A0022009101920122DA40D3
:10058C00019286E7424620239B1A2A0046469A404F
:10059C002300F340444613432A00E2401C005B4610
:1005AC001500002BD4DA42462F002023260097405A
:1005BC009B1ADE403B003343CDE7C0461C21012390
:1005CC001B04984201D3000C10391B0A984201D32A
:1005DC00000A08391B09984201D30009043902A208
:1005EC00105C40187047C04604030202010101016F
:1005FC00000000000000000010B5002903D1FFF737
:10060C00DDFF203002E0081CFFF7D8FF10BDC0460C
:10061C0010B50400114B1968002901D1012010BD3F
:10062C00FA208000FFF768FD01000D4B1868FFF7FA
:10063C0063FD00F0C7FC00280DD1032C01D901206B
:10064C00EDE7013000222100404200F07FFC054B19
:10065C001C600020E3E70120E1E7C0460000002019
:10066C00080000200400002010B5084A11688023FF
:10067C005B000B4313600020FFF7CAFF041E02D07F
:10068C000124200010BD02F08FFEFAE7002002408A
:10069C00034A1368034909685B1813607047C04626
:1006AC005804002000000020014B18687047C04619
:1006BC0058040020024A1368034313607047C04675
:1006CC0000000140F0B583B0040000230193002822
:1006DC0000D11FE1836D002B12D023689A68D200E1
:1006EC001BD49A688C491140802252050A439A60A7
:1006FC008A4B18688A49FFF7FFFC4000019009E01B
:10070C0002F078FE0023E3655422A354E5E7019B35
:10071C00013B0193019B002BF9D123689A68D2000D
:10072C0009D4A26D10210A43A265E26D0F390A4368
:10073C00E265012000E000209A68042529001140A0
:10074C00154200D00121A26DD20600D5DBE00029B4
:10075C0000D0D8E0A26D734D2A400635FF352A43F0
:10076C00A2659A68D20724D4DA681635AA43A5681C
:10077C002A43DA6025682B699B009B086268920FFC
:10078C00920713432B616368C0221206934210D068
:10079C008022D20593420CD080221206934208D0BC
:1007AC00614D2A68614E3240F026B6033340134344
:1007BC002B60237E9B03627ED2031343A57E6A03C8
:1007CC001343226B002A01D0802252011343E268AA
:1007DC0013432269002A53DB8022920313432C22F9
:1007EC00A25C520013432022A25C012A4BD0626A05
:1007FC00002A05D0E0256D002A40A56A2A43134340
:10080C00226C656C2A43A56C2A43E56C2A433C2573
:10081C00655D012D46D02668F568454F3D401D436A
:10082C00F56026683569434F3D402A43326125689F
:10083C006A690726B243666B32436A61266872693D
:10084C007025AA43A56B2D012A4372612269002AE7
:10085C002AD121688D6A103A2A438A622268D268AA
:10086C0035490A409A4245D0A36D12229343023A6D
:10087C001343A365E36D0F3A1343E365012047E08F
:10088C0052005208AAE7002D03D1802252021343D2
:10089C00ADE7A26D20252A43A265E26D1F3D2A43D8
:1008AC00E265A4E72A43B6E78025AD03AA42D5D179
:1008BC00072908D88A00256ED5400F222A400F2A16
:1008CC0001D00131F4E701290DD02568AA6AE2694B
:1008DC00013A92001C211140102252428A40216E92
:1008EC000A43AA62BAE721688D6A102252422A434F
:1008FC008A62B3E70023E365A36D03229343023AB4
:10090C001343A36504E0A36D10221343A3650120D8
:10091C0003B0F0BD0120FBE7E8FFFF6F08000020EB
:10092C00400D0300FDFEFFFF08270140FFFFC3FF42
:10093C001902FEFF02FCFFDFE7FF3F83F0B583B037
:10094C0004000023019305695433C35C012B00D1CF
:10095C002CE154230122C254006883680332160030
:10096C001E401A4209D0A36D1C321343A36501200B
:10097C0054230022E25403B0F0BD4B68022B00D18B
:10098C00D2E080221206954226D0894A954223D085
:10099C001F221340103A9A40256E95432A000D6889
:1009AC006F032FD1AD0E1F262E409E401643266698
:1009BC004D68AB080133E269934213D8826A1F2356
:1009CC001D40103B1E00AE40B2430E68B60E3340C5
:1009DC00AB401343836205E0826A0B685B035B0BDD
:1009EC0013438362206842690B681B029A438D682B
:1009FC002B40704D2B40134343610B68002B4FDB96
:100A0C000020B5E7EF07D0D4AE0727D46E0727D464
:100A1C002E0727D4EE0627D4AE0627D46E0627D48D
:100A2C002E0627D4EE0527D4AE0527D46E0527D481
:100A3C002E0527D4EE0427D4AE0427D46E0427D475
:100A4C002E0427D4EE0327D4AE0327D48027FF022D
:100A5C002E003E403D42A8D01226A6E70126A4E770
:100A6C000226A2E70326A0E704269EE705269CE7BC
:100A7C0006269AE7072698E7082696E7092694E7BC
:100A8C000A2692E70B2690E70C268EE70D268CE7BC
:100A9C000E268AE70F2688E7102686E7112684E7BC
:100AAC00454A1168E02252040A404448834207D068
:100ABC00434883421ED04348834228D0002057E746
:100ACC000802F5D480231B041A433B490B683E48AB
:100ADC0003401A430A603D4B18683D49FFF70CFB75
:100AEC00019002E0019B013B0193019B002BF9D18A
:100AFC0000203DE7C801DED480235B041A432E4955
:100B0C000B68314803401A430A60002030E74B025F
:100B1C004AD48023DB031A4327490B682A48034035
:100B2C001A430A60002023E780231B069D4202D053
:100B3C001F4B9D4205D1826A0B685B035B0B9A438A
:100B4C0082620B68002B01DB002011E71A4A126845
:100B5C001A498B4207D01A498B420FD019498B4244
:100B6C0017D0002004E7A0235B041A4012490B683D
:100B7C00154803401A430A600020F9E6C0231B0401
:100B8C001A400D490B68104803401A430A600020B4
:100B9C00EEE6C0235B041A4007490B680A48034081
:100BAC001A430A600020E3E60020E1E60220E2E6B8
:100BBC000400008000FFFF0708270140001000B070
:100BCC00004000B8002000B4FFFF3FFE08000020EA
:100BDC00400D0300F0B55423C35C012B00D1A1E1FF
:100BEC0054230122C25403689A68520700D543E18A
:100BFC000A688C4CA2421CD04C6880252D04AC4257
:100C0C0000D117E1C0252D04AC4200D051E1864C37
:100C1C00A24246D0A4229C588A68550300D0A7E073
:100C2C00920E1F3515400122AA402243A4241A51CA
:100C3C000EE14A6880242404A2421FD0C02424045C
:100C4C00A24223D1DA68794C2240F825ED058C6854
:100C5C002540C02424042C432243DA60836D744A5B
:100C6C0013408365036880221A600B7B012B12D022
:100C7C00026853688024A3435360FDE0DA686B4C30
:100C8C001440802212042243DA60E7E7DA68674CEA
:100C9C002240DA60E2E70268536880242343536001
:100CAC00EAE0A0229C588A68550308D1920E1F35A1
:100CBC0015400122AA402243A0241A51C8E0D507AE
:100CCC0026D4950726D4550726D4150726D4D50641
:100CDC0026D4950626D4550626D4150626D4D50535
:100CEC0026D4950527D4550528D4150529D4D50423
:100CFC002AD495042BD455042CD415042DD4D50307
:100D0C002ED495032FD4520330D58022D202D2E7B1
:100D1C000122D0E70222CEE70422CCE70822CAE760
:100D2C001022C8E72022C6E74022C4E78022C2E78F
:100D3C0080225200BFE780229200BCE78022D200C2
:100D4C00B9E780221201B6E780225201B3E7802274
:100D5C009201B0E78022D201ADE780221202AAE70D
:100D6C0080225202A7E780229202A4E70122A2E786
:100D7C00D50726D4950726D4550726D4150726D48F
:100D8C00D50626D4950626D4550626D4150626D483
:100D9C00D50526D4950527D4550528D4150529D471
:100DAC00D5042AD495042BD455042CD415042DD455
:100DBC00D5032ED495032FD4520330D58022D202E2
:100DCC0033E7012231E702222FE704222DE7082224
:100DDC002BE7102229E7202227E7402225E7802253
:100DEC0023E78022520020E7802292001DE7802218
:100DFC00D2001AE78022120117E78022520114E771
:100E0C008022920111E78022D2010EE78022120289
:100E1C000BE78022520208E78022920205E70122AA
:100E2C0003E7C0460000C07CFFFF1700FFFF3F83B5
:100E3C00FFFFFEFFA033550DAD0004242C401B1901
:100E4C001C68394D1540AC43384D2A4022431A607A
:100E5C00374B0A689A4238D0836D364A1340836503
:100E6C000368802292001A600B7B012B44D002682D
:100E7C005368314C234053600C68304B9C4242D039
:100E8C000D69496902682032260D03233340640D35
:100E9C00012634401B199B00D3181A68284C224099
:100EAC002D0429430A431A6054230022C254002003
:100EBC00F0BDA033550DAD0004242C401B191C684B
:100ECC00194D2A4094431C60C2E7836D1D4A1340A0
:100EDC0083650368802252001A600B7B012B05D0BE
:100EEC0002685368184C23405360C5E70268546885
:100EFC00FF3323435360BFE70268546880239B0091
:100F0C0023435360B8E70768FB68DB0803263340CC
:100F1C005B000D699D404969FB68DB081E4076004B
:100F2C00B140AFE70220C3E7FFFFC77CFFFF87009C
:100F3C00FFFF1700FFFFFBFFFFFDFFFF0000C07C62
:100F4C0000F000F0FFFFFDFFFFFEFFFF70B5002873
:100F5C0011DB8308134EC0339B009D5903242040A2
:100F6C00C000FF2214008440A54389010A4082403E
:100F7C002A439A5170BD0F230340083B9B0806334C
:100F8C009B00094A944663445C6803221040C000ED
:100F9C00FC3215008540AC4389010A408240224353
:100FAC005A60E7E700E100E000ED00E0002805DB17
:100FBC001F2318401E3B8340014A13607047C046F4
:100FCC0000E100E0013880235B0498420FD2094A0B
:100FDC0050600948036A1B021B0AC02109060B4317
:100FEC0003620023936007331360002070470120D5
:100FFC00FCE7C04610E000E000ED00E070B52423F3
:10100C000122C2540133C35C022B03D00423C363FB
:10101C00012070BD026813680E218B4313600168B8
:10102C000A6801239A430A60416C0A68124C2240F8
:10103C000A60124C62681C21056C29408B401343DA
:10104C006360836CC26C5A60036D002B06D01A6807
:10105C0009490A401A60436D826D5A6025230122AA
:10106C00C254013B0022C254836B002B02D0984720
:10107C000020CEE70020CCE7FFFEFFFF000002407F
:10108C00F0B5D6464F464646C0B500233BE0032696
:10109C0000E00026A64034003C435A4E1832920021
:1010AC0094518022B4584A46D24326004D46AE4352
:1010BC004D68ED0302D54D462C432600514C80273C
:1010CC00E6518426A459260016404D68AD0302D57E
:1010DC004D462C4326004B4C8427E65124682600B1
:1010EC0016404D68ED0202D54D462C432600454C6A
:1010FC002660646822404D68AD0201D54A46224301
:10110C00404C626001330C682200DA4075D0012239
:10111C009A4025001540A9461442F3D04C68022C85
:10112C0001D0122C0ED1DC080834A4002758072655
:10113C001E40B6000F25B540AF430D69B5402E00DB
:10114C003E4326500468A4465E000324A2462700B2
:10115C00B740B846FF4365464446A543AC464C6889
:10116C00554625402C00B44065462C4304604C6821
:10117C00651E012D03D9112C01D0122C13D18468BA
:10118C003C40A446CC68B44065462C43846044681B
:10119C00944322004C682409A446012465462C4043
:1011AC009C4014434460C26817408A68B2403A437A
:1011BC00C2604A68D200A5D59A0814001834A4005D
:1011CC00104EA75903241C40E4000F26A640B74339
:1011DC00A026F605B04200D15BE70B4EB04208D01A
:1011EC000A4EB04207D00A4EB04200D14FE7052656
:1011FC0050E701264EE702264CE7E0BCBA46B14662
:10120C00A846F0BD00180240000400500008005031
:10121C00000C0050002A01D0816170478162FCE70C
:10122C007047704710B50B4BDB68DB0304D4094BDC
:10123C001B69DB0307D410BD064B80225202DA6017
:10124C00FFF7EEFFF3E7034B802252021A61FFF720
:10125C00E8FFF0E70018024010B5104A1368104977
:10126C000B400343136080239B00984201D0002065
:10127C0010BD0C4B1B685800C01840000A49FEF703
:10128C003BFF0130054B5B695B0503D5002803D0A0
:10129C000138F7E70020EBE70320E9E70070004096
:1012AC00FFF9FFFF0800002040420F0070B582B02C
:1012BC00041E00D134E20368DB0739D5C14A9168BA
:1012CC0038230B40D16803220A40102B26D0082B60
:1012DC0026D063688022520293427FD0A022D20291
:1012EC00934200D181E0B74B1A68B7490A401A60A3
:1012FC001A68B6490A401A606368002B00D180E076
:10130C00FFF7D2F90500AF4B1B689B0310D4FFF716
:10131C00CBF9401B6428F6D9032002E2032AD6D16C
:10132C00A84B1B689B0303D56368002B00D1FAE123
:10133C0023689B0731D5A34A936838210B40D168A9
:10134C0003220A40102B6AD0002B6BD19D4A1268E5
:10135C00520503D5E268002A00D1E6E199484268BB
:10136C009B490A40616909020A434260002B0DD176
:10137C00036898490B4021690B4303600368DB0A3F
:10138C0007221A40944BD340944A1360944B18682C
:10139C00FFF73EF9002800D0C9E123681B0700D4F1
:1013AC0081E0884B9A6838231340182B73D0A369BB
:1013BC00002B00D1B4E0834A136E01210B4313665A
:1013CC00FFF772F905007F4B1B6E9B076BD4FFF781
:1013DC006BF9401B0228F6D90320A2E1794A116867
:1013EC0080235B020B43136086E7764B19688022DF
:1013FC00D2020A431A601968802252020A431A6008
:10140C007AE7FFF751F905006E4B1B689B038FD5EC
:10141C00FFF74AF9401B6428F6D9032081E1022A20
:10142C0092D193E7E368002B22D0664A136869498E
:10143C000B4021690B431360116880235B000B4345
:10144C001360FFF731F905005E4B1B685B0506D492
:10145C00FFF72AF9401B0228F6D9032061E159490C
:10146C004B685B4A13406269120213434B6094E76A
:10147C00544A13685B490B401360FFF715F90500DC
:10148C00504B1B685B0588D5FFF70EF9401B0228F3
:10149C00F6D9032045E14B4B1B6E9B0703D5A36983
:1014AC00002B00D145E123685B0700D4A2E0454B3B
:1014BC009A6838231340202B45D0424BDB6BDB0062
:1014CC004AD4404AD16B802040050143D163D36B91
:1014DC0003400193019B0125434B1B68DB053DD564
:1014EC00A368012B4ED0052B52D0364BDA6D01215F
:1014FC008A43DA65DA6D03318A43DA65A368002B17
:10150C0050D0FFF7D1F806002E4BDB6D9B076FD444
:10151C00FFF7CAF8801B354B9842F5D9032000E140
:10152C00284A136E01218B431366FFF7BDF80500A3
:10153C00244B1B6E9B07B6D5FFF7B6F8401B022851
:10154C00F6D90320EDE01F4BDB6D9B0752D5A3684A
:10155C00002B4FD10120E4E00025BDE7224A1168A1
:10156C0080235B000B431360FFF79EF806001E4BB5
:10157C001B68DB05B4D4FFF797F8801B0228F6D95B
:10158C000320CEE00F4AD36D01210B43D365B5E7A1
:10159C000C4BDA6D04210A43DA65DA6D03390A4320
:1015AC00DA65ABE7FFF780F80600064BDB6D9B07AF
:1015BC001ED5FFF779F8801B0C4B9842F5D9032008
:1015CC00AFE0C04600100240FFFFFEFFFFFFFBFF35
:1015DC00FF80FFFFFFC7FFFF0024F400080000207E
:1015EC0004000020FFFEFFFF007000408813000085
:1015FC00012D26D0E369002B00D19CE0564A91685E
:10160C0038220A40102A63D0022B20D0524B1A6881
:10161C0052490A401A60DA6803218A43DA60DA68B0
:10162C004F490A40DA60FFF73FF804004A4B1B6849
:10163C009B014BD5FFF738F8001B0228F6D9032085
:10164C006FE0454AD36B47490B40D363D2E7424A1C
:10165C00136842490B401360FFF726F805003E4B18
:10166C001B689B0106D5FFF71FF8401B0228F6D913
:10167C00032056E0384AD3683B491940236A606A14
:10168C000343A06A00020343E06A0343206B034355
:10169C00606B03430B43D360116880235B040B43E3
:1016AC001360D16880235B050B43D360FEF7FCFF0E
:1016BC000400294B1B689B0106D4FEF7F5FF001BA9
:1016CC000228F6D903202CE000202AE0002028E094
:1016DC00012B32D0204BDA6803231340216A8B4252
:1016EC002DD170231340616A8B422AD1FE21C9018E
:1016FC001140A36A1B02994225D1F8239B03134086
:10170C00E16A8B4221D1E0231B051340216B8B42F4
:10171C001DD1520F5207636B9A421AD1002000E080
:10172C00012002B070BD0120FBE70120F9E7012088
:10173C00F7E70120F5E70020F3E70120F1E70120AE
:10174C00EFE70120EDE70120EBE70120E9E70120BD
:10175C00E7E70120E5E7C04600100240FFFFFFFE6F
:10176C00FFFFFEEEFFFFFFEF8C80C11110B52A4B7F
:10177C009B6838221A4207D1274B1A68D20A0723D2
:10178C0013402648D84010BD234B9A683823134089
:10179C00082B3BD0204B9A6838231340102B0DD0CC
:1017AC001D4B9A6838231340202B31D01A4B9A6862
:1017BC0038231340182B26D00020E4E7164AD168B2
:1017CC000D3B0B40D2681209072111400131032B4C
:1017DC000FD01248FEF790FC0F4BDA68120A7F23E9
:1017EC00134058430C4BD968490F0131FEF784FC68
:1017FC00C9E70B48FEF780FC074BDA68120A7F2317
:10180C0013405843EEE7FA20C001BCE70448BAE79E
:10181C0080200002B7E7C046001002400024F4000C
:10182C0000127A0070B504000D00002800D1AAE067
:10183C00574B1A68072313408B4221D323689A070E
:10184C000ED55B0705D5534A9168E023DB010B43AA
:10185C009360504A936850490B40A1680B439360C6
:10186C002368DB0754D56368012B20D0022B3BD0B7
:10187C00002B3FD1474A126852051CD401206AE064
:10188C00434A136807218B432B431360FEF70CFF6D
:10189C0006003F4B1A6807231340AB42CED0FEF72D
:1018AC0003FF801B3D4A9042F3D9032053E0394A91
:1018BC001268920369D537498A680720824313431B
:1018CC008B60FEF7F1FE0600324B9B6838221A4003
:1018DC006368DB009A421BD0FEF7E6FE801B2F4BA1
:1018EC009842F1D9032036E02A4A12689201E2D4D8
:1018FC00012030E0032B05D0264AD26D9207DAD4B2
:10190C00012028E0234A126E9207D4D4012022E051
:10191C001F4B1A6807231340AB421DD823685B0783
:10192C0006D51C4A93681E490B40E1680B43936033
:10193C00FFF71CFF174B9A68120A0F2313409B00EA
:10194C00184A9A581F231340D840174B1860174B4E
:10195C001868FEF75DFE70BD0D4A136807218B43B6
:10196C002B431360FEF7A0FE0600094B1A680723F1
:10197C001340AB42D2D0FEF797FE801B074B984228
:10198C00F3D90320E7E70120E5E70120E3E7C046B0
:10199C000020024000100240FFF0FFFF88130000FF
:1019AC00FF8FFFFF00380008080000200400002013
:1019BC00014B18687047C0460800002010B5FFF7AF
:1019CC00F7FF064B9A68120B072313409B00044A3F
:1019DC009A581F231340D84010BDC0460010024037
:1019EC0040380008F0B583B0040003689B0362D54F
:1019FC006D4BDB6BDB001ED46B4AD16B802040053A
:101A0C000143D163D36B03400193019B0126674AC9
:101A1C00116880235B000B431360FEF745FE050045
:101A2C00624B1B68DB0508D4FEF73EFE401B022808
:101A3C00F6D9032502E00026E9E70025002D23D185
:101A4C00594BD96DC02292000B001340114210D09B
:101A5C00626A9A420DD0544AD36D55490B40D06DF1
:101A6C00802149020143D165D16D52480140D165B5
:101A7C00D365DB0710D4002D06D14B4AD36D4C49EE
:101A8C000B40616A0B43D365012E15D1464AD36BCB
:101A9C0049490B40D3630FE0FEF706FE0700424BAB
:101AAC00DB6D9B07E7D4FEF7FFFDC01B434B984251
:101ABC00F5D90325DFE700252368DB0706D53A4A6D
:101ACC00536D03218B4361680B43536523689B065D
:101ADC0006D5354A536D3A490B40A1680B43536503
:101AEC0023689B0506D5304A536D36490B40616916
:101AFC000B43536523685B0506D52B4A536D32495E
:101B0C000B40A1690B43536523685B0606D5264A37
:101B1C00536D2E490B40E1680B43536523685B04FE
:101B2C000BD5214A536D9B009B08E1690B43536510
:101B3C008023DB05E2699A4220D023689B020BD5F7
:101B4C00194A536D22490B40216A0B43536580237C
:101B5C00DB03226A9A4218D023681B050BD5124A64
:101B6C00536D1C490B4021690B435365226980233B
:101B7C00DB019A4210D0280003B0F0BD0A4AD168AC
:101B8C0080235B020B43D360D7E7074AD1688023DD
:101B9C005B040B43D360DFE7034AD16880235B020D
:101BAC000B43D360E7E7C0460010024000700040D2
:101BBC00FFFCFFFFFFFFFEFFFFFFFFEF881300009E
:101BCC00FFF3FFFFFFFFF3FFFFFFCFFFFFCFFFFF91
:101BDC00FFFFBFFFFF3FFFFF70B504000268D36833
:101BEC00A0218B43D360FEF75FFD05002368DB6803
:101BFC009B0608D4FEF758FD401BFA239B00984225
:101C0C00F4D9032000E0002070BD70B50400036817
:101C1C00DA68520602D50025280070BDDA688021EA
:101C2C000A43DA60FEF740FD060000252368DB68F6
:101C3C005B06F1D4032DEFD0FEF736FD801BFA22A4
:101C4C0092009042F2D929230322E2540325EDE7B6
:101C5C0010B50400114BDA6880218A43DA609B6965
:101C6C009B0608D4FFF7B8FF002816D029230322BF
:101C7C00E254032011E0094A936920218B439361BC
:101C8C00FFF7AAFF002803D029230322E2540320E4
:101C9C00024A936920210B43936110BD0028004038
:101CAC0070B5041E4ED02923C35C002B16D02923FB
:101CBC000222E2542368C8325A622368773A5A6285
:101CCC002000FFF7A2FF002811D02368FF225A62E0
:101CDC00002802D12923FE3AE25470BD2833002299
:101CEC00C25488231B02436001F0B4FBDFE7226877
:101CFC00936915490B40936121688A69A3686069EF
:101D0C000343E069034313438B61236822691A611F
:101D1C0021680B69E268120413430B612000FFF782
:101D2C0097FF0028D1D122689369DB00DB0893610F
:101D3C0021688A69636A256A2B43A5692B4313437F
:101D4C008B61C2E70120C8E7BFFF8FFB0023092886
:101D5C0003D901330A38C0B2F9E71B01DBB21843CF
:101D6C007047000070B504000E0015002823C35CFA
:101D7C00012B57D028230122C25401330132C25403
:101D8C000368C8325A620368773A5A62FFF73DFF1C
:101D9C0000282AD1002D34D123689B695B0601D41D
:101DAC000023F3703078FFF7D1FF05047078FFF74C
:101DBC00CDFF00020543B078FFF7C8FF2843F37846
:101DCC009B0518432368184A1040186022689369D1
:101DDC0016490B40936121688B69F26830690243A4
:101DEC0013438B612000FFF733FF2368FF225A62F5
:101DFC00002802D12923FE3AE25428230022E2547F
:101E0C0070BD23689B695B0601D40023F3703078A6
:101E1C00000473781B021843B3781843F3789B05BE
:101E2C001843CFE70220EBE77F7F7F00FFFFFBFF2C
:101E3C0070B504000E002823C35C012B4AD0282364
:101E4C000121C15401330131C154002A06D17378E8
:101E5C00D90603D510218B430A337370002A26D17F
:101E6C00F078FFF773FF05047078FFF76FFF00023F
:101E7C000543B078FFF76AFF05433078400305430C
:101E8C002368CA225A622368773A5A622000FFF705
:101E9C00BCFE002816D02368FF225A62002802D10B
:101EAC002923FE3AE25428230022E25470BDF5782F
:101EBC002D04707800020543B07805433078400358
:101ECC000543DDE72368044805405D602000FFF70B
:101EDC00BFFEE0E70220E9E73FFFFF00F8B5040092
:101EEC000D0016002823C35C012B48D028230122A7
:101EFC00C25401330132C2540368C8325A620368B7
:101F0C00773A5A621F4B9A691F490A409A61DB68FB
:101F1C005B061BD52268936907218B439361236869
:101F2C009A6916439E6123685D61226891698023DA
:101F3C00DB000B4393612368FF225A622923FE3A8C
:101F4C00E254013B0022E2540020F8BDFEF7ACFB4A
:101F5C0007002368DB685B07DCD4FEF7A5FBC01B1E
:101F6C00FA239B009842F4D92368FF225A62292352
:101F7C00FC3AE254013B0022E2540320E5E7022044
:101F8C00E3E7C04600280040FFFBFFFF0268136830
:101F9C0006490B4013600268936805490B40936037
:101FAC0084232022C2500023C3667047DFFEFFFF4C
:101FBC00FEFFFFEF704710B50268136840218B439A
:101FCC00136080232022C25000230367FFF7F2FF27
:101FDC0010BD7047F8B504000268D36915689068A5
:101FEC000F210E001E40194205D1990603D5A906F2
:101FFC0029D4C10027D4002E08D05A4906000E401F
:10200C00084226D1902149000D4222D1D90202D595
:10201C00410200D58BE01A0605D52A0600D58DE0C5
:10202C00020200D58AE05A0602D56A0600D58CE079
:10203C001A0202D56A0000D58BE0DB0102D5002D17
:10204C0000DA8AE0F8BDE36E002BFBD02000984745
:10205C00F8E7D90707D5E90505D5012717628821C7
:10206C0062583A4362509A0709D5C20707D52268CD
:10207C00022111628631625804273A4362505A0792
:10208C0009D5C20707D52268042111628431625830
:10209C0002273A4362501A070AD5AA0601D4002E29
:1020AC0006D0226808261662882162583243625094
:1020BC008822A258002AC5D09B0608D5AB0601D4AD
:1020CC00C30004D5E36E002B01D020009847882371
:1020DC00E25823689B685B0601D4130720D52000C7
:1020EC00FFF754FF23689A68520615D59A68402169
:1020FC008A439A60A36F002B0AD01B4A9A63A06F85
:10210C00FEF77CFF00289DD0A06F836B984799E762
:10211C002000FFF75EFF95E72000FFF75AFF91E7DD
:10212C002000FFF756FF88230022E2508AE7802325
:10213C005B031362200000F035FF83E7236F002B55
:10214C0000D17FE7200098477CE72000FFF733FFA2
:10215C0078E7200000F028FF74E7200000F023FF50
:10216C0070E7C046010000107921000810B5806AA4
:10217C0000235E228352083A8352FFF72AFF10BDD8
:10218C0070B5040001688368026913434269134304
:10219C00C2691343426E1A430B68BE480340134393
:1021AC000B6022685368BC490B40E1680B435360D9
:1021BC00A1692268B94B9A4201D0236A19439368EA
:1021CC00B74803400B4393602268D36A0F218B43BB
:1021DC00616A0B43D3622368B24A934254D0B24A29
:1021EC00934200D181E0AD4A93425ED01026AB4AB7
:1021FC00934200D183E080231B02E2699A4200D112
:10220C0027E3042E01D100F001FD01D900F061FC9F
:10221C00002E01D100F091FC022E01D000F056FCF2
:10222C00636A002B01D100F0CFFC012B01D100F02F
:10223C00D9FC022B01D100F0D7FC032B01D100F00B
:10224C00D5FC042B01D100F0D3FC052B01D100F0FF
:10225C00D1FC062B01D100F0CFFC072B01D100F0F3
:10226C00CDFC082B01D100F0CBFC092B01D100F0E7
:10227C00C9FC0A2B01D100F0C7FC0B2B01D100F0DB
:10228C009CFC012100F0A1FC884A516D03220A40FC
:10229C00022A22D005D8002A21D0012A21D10426D5
:1022AC00A5E7032A1FD10826A1E7804A526DC02159
:1022BC0009010A40802109018A4218D007D8002A56
:1022CC0017D08021C9008A4215D104268FE7C0217E
:1022DC0009018A4211D1082689E7022687E70026E0
:1022EC0085E7102683E7102681E700267FE7022684
:1022FC007DE700267BE7102679E7102677E7042E8A
:10230C0000D1FFE02DD8002E57D0022E26D1636AC3
:10231C00002B00D1DDE0012B00D1DFE0022B00D13E
:10232C00DEE0032B00D1DDE0042B00D1DCE0052B3B
:10233C0000D1DBE0062B00D1DAE0072B00D1D9E08D
:10234C00082B00D1D8E0092B00D1D7E00A2B00D103
:10235C00D6E00B2B00D1B9E00121BBE0012600F047
:10236C00C7FC082E26D1636A002B00D105E1012B96
:10237C0000D108E1022B00D107E1032B00D106E1CB
:10238C00042B00D105E1052B00D104E1062B00D173
:10239C0003E1072B00D102E1082B00D101E1092B4D
:1023AC0000D100E10A2B00D1FFE00B2B00D1E1E0C2
:1023BC000121E3E0012600F09BFCFFF7FFFA636AC2
:1023CC00002B1AD0012B5ED0022B5ED0032B5ED0DB
:1023DC00042B6DD0052B6DD0062B6DD0072B6DD03B
:1023EC00082B6DD0092B6DD00A2B6DD00B2B01D087
:1023FC00012103E08021490000E00121FDF77CFE72
:10240C00002801D100F069FC65686B005B19834200
:10241C0001D900F064FC2B03834201D200F061FC73
:10242C00042E00D184E100D9C4E0002E00D1F6E0E6
:10243C00022E00D0BBE0636A002B00D146E1012BD9
:10244C0000D157E1022B00D157E1032B00D157E10A
:10245C00042B00D157E1052B00D157E1062B00D1FD
:10246C0057E1072B00D157E1082B00D157E1092B7D
:10247C0000D157E10A2B00D157E10B2B00D121E100
:10248C000122002324E10221B8E70421B6E706214A
:10249C00B4E7C046F369FFCFFFCFFFFF00800040D9
:1024AC00FFF4FF11003801400044004000100240CE
:1024BC000821A3E70A21A1E70C219FE710219DE742
:1024CC0020219BE7402199E7802197E78021490053
:1024DC0000E00121A748FDF70FFE91E70221F9E783
:1024EC000421F7E70621F5E70821F3E70A21F1E7D4
:1024FC000C21EFE71021EDE72021EBE74021E9E784
:10250C008021E7E7FFF732F9636A002B1AD0012B21
:10251C001CD0022B1CD0032B1CD0042B1CD0052B45
:10252C001CD0062B1CD0072B1CD0082B1CD0092B25
:10253C001CD00A2B1CD00B2B01D0012103E08021D5
:10254C00490000E00121FDF7D7FD59E70221FAE728
:10255C000421F8E70621F6E70821F4E70A21F2E75F
:10256C000C21F0E71021EEE72021ECE74021EAE70F
:10257C008021E8E78021490000E001218020000251
:10258C00FDF7BAFD3CE70221F8E70421F6E7062146
:10259C00F4E70821F2E70A21F0E70C21EEE710211D
:1025AC00ECE72021EAE74021E8E78021E6E7012675
:1025BC0000202BE0082E27D1636A002B00D115E1F7
:1025CC00012B00D127E1022B00D127E1032B00D1F5
:1025DC0027E1042B00D127E1052B00D127E1062BA5
:1025EC0000D127E1072B00D127E1082B00D127E1EF
:1025FC00092B00D127E10A2B00D127E10B2B00D1AD
:10260C00F0E001220023F3E0012600205A4A5B4B44
:10261C00C318934200D966E32368D86068E3FFF7D8
:10262C00CDF9636A002B1CD0012B2DD0022B2ED0A0
:10263C00032B2FD0042B30D0052B31D0062B32D0CE
:10264C00072B33D0082B34D0092B35D00A2B36D09E
:10265C000B2B02D00122002305E080225200002324
:10266C0001E0012200230021FDF7BCFE050E0B0248
:10267C002B430202656868080021801859412A0022
:10268C000023FDF7AFFEC1E702220023EBE7042293
:10269C000023E8E706220023E5E708220023E2E70F
:1026AC000A220023DFE70C220023DCE710220023A0
:1026BC00D9E720220023D6E740220023D3E780224B
:1026CC000023D0E780225200002301E001220023E6
:1026DC0028480021FDF786FE060E0B02334302024A
:1026EC0068080021801859412A000023FDF77AFE62
:1026FC0000268BE702220023EAE704220023E7E707
:10270C0006220023E4E708220023E1E70A22002343
:10271C00DEE70C220023DBE710220023D8E720227F
:10272C000023D5E740220023D2E780220023CFE705
:10273C00FFF71CF8636A002B22D0012B34D0022B3C
:10274C0035D0032B36D0042B37D0052B38D0062BA5
:10275C0039D0072B3AD0082B3BD0092B3CD00A2B75
:10276C003DD00B2B02D0012200230BE08022520023
:10277C00002307E00024F400FFFC0F0000FDFFFF26
:10278C00012200230021FDF72DFE050E0B022B4329
:10279C000202656868080021801859412A0000234C
:1027AC00FDF720FE002631E702220023EAE704228F
:1027BC000023E7E706220023E4E708220023E1E7F1
:1027CC000A220023DEE70C220023DBE71022002381
:1027DC00D8E720220023D5E740220023D2E780222D
:1027EC000023CFE780225200002301E001220023C6
:1027FC00802000020021FDF7F5FD060E0B0233438D
:10280C00020268080021801859412A000023FDF7B4
:10281C00E9FD0026FAE602220023E9E70422002360
:10282C00E6E706220023E3E708220023E0E70A227A
:10283C000023DDE70C220023DAE710220023D7E780
:10284C0020220023D4E740220023D1E7802200235A
:10285C00CEE7042E00D1D0E02DD8002E66D0022E6B
:10286C0026D1636A002B00D1A4E0012B00D1B0E08B
:10287C00022B00D1AFE0032B00D1AEE0042B00D132
:10288C00ADE0052B00D1ACE0062B00D1ABE0072B63
:10289C0000D1AAE0082B00D1A9E0092B00D1A8E0B7
:1028AC000A2B00D1A7E00B2B00D180E0012182E0A4
:1028BC00012600202AE0082E26D1636A002B00D1C5
:1028CC00E0E0012B00D1EDE0022B00D1ECE0032B7A
:1028DC0000D1EBE0042B00D1EAE0052B00D1E9E0BC
:1028EC00062B00D1E8E0072B00D1E7E0082B00D144
:1028FC00E6E0092B00D1E5E00A2B00D1E4E00B2B3C
:10290C0000D1BCE00121BEE001260020AC4A03004E
:10291C00103B934200D9E8E10F2302009A43400890
:10292C00083B184010432368D860E1E1FFF746F8F4
:10293C00636A002B1AD0012B25D0022B25D0032B38
:10294C0025D0042B25D0052B25D0062B25D0072BE5
:10295C0025D0082B25D0092B25D00A2B25D00B2BC5
:10296C0001D0012103E08021490000E00121FDF7A5
:10297C00C3FB400063685B08C0186168FDF7BCFBD3
:10298C000004000CC2E70221F1E70421EFE7062165
:10299C00EDE70821EBE70A21E9E70C21E7E7102135
:1029AC00E5E72021E3E74021E1E78021DFE7802113
:1029BC00490000E001218348FDF79EFB400063685D
:1029CC005B08C0186168FDF797FB0004000C00263B
:1029DC009CE70221EFE70421EDE70621EBE7082154
:1029EC00E9E70A21E7E70C21E5E71021E3E72021DD
:1029FC00E1E74021DFE78021DDE7FEF7B7FE636A00
:102A0C00002B1AD0012B26D0022B26D0032B26D03C
:102A1C00042B26D0052B26D0062B26D0072B26D010
:102A2C00082B26D0092B26D00A2B26D00B2B01D015
:102A3C00012103E08021490000E00121FDF75CFB4E
:102A4C00400063685B08C0186168FDF755FB000423
:102A5C00000C00265AE70221F0E70421EEE70621DC
:102A6C00ECE70821EAE70A21E8E70C21E6E7102168
:102A7C00E4E72021E2E74021E0E78021DEE7802146
:102A8C00490000E0012180200002FDF735FB4000E9
:102A9C0063685B08C0186168FDF72EFB0004000C2E
:102AAC00002633E70221EEE70421ECE70621EAE7F2
:102ABC000821E8E70A21E6E70C21E4E71021E2E728
:102ACC002021E0E74021DEE78021DCE70126002021
:102ADC002AE0082E26D1636A002B00D1DAE0012B04
:102AEC0000D1E6E0022B00D1E5E0032B00D1E4E0BD
:102AFC00042B00D1E3E0052B00D1E2E0062B00D142
:102B0C00E1E0072B00D1E0E0082B00D1DFE0092B3E
:102B1C0000D1DEE00A2B00D1DDE00B2B00D1B6E0BA
:102B2C000121B8E001260020254A0300103B934206
:102B3C0000D9DCE02368D860DAE0FEF73FFF636A77
:102B4C00002B1AD0012B24D0022B24D0032B24D001
:102B5C00042B24D0052B24D0062B24D0072B24D0D7
:102B6C00082B24D0092B24D00A2B24D00B2B01D0DA
:102B7C00012103E08021490000E00121FDF7BCFAAE
:102B8C0063685B08C0186168FDF7B6FA0004000CB6
:102B9C00CAE70221F2E70421F0E70621EEE708215B
:102BAC00ECE70A21EAE70C21E8E71021E6E720210F
:102BBC00E4E74021E2E78021E0E78021490004E0DE
:102BCC00EFFF00000024F40001214E48FDF794FAB9
:102BDC0063685B08C0186168FDF78EFA0004000C8E
:102BEC000026A1E70221F0E70421EEE70621ECE73D
:102BFC000821EAE70A21E8E70C21E6E71021E4E7DF
:102C0C002021E2E74021E0E78021DEE7FEF7AEFD80
:102C1C00636A002B1AD0012B25D0022B25D0032B55
:102C2C0025D0042B25D0052B25D0062B25D0072B02
:102C3C0025D0082B25D0092B25D00A2B25D00B2BE2
:102C4C0001D0012103E08021490000E00121FDF7C2
:102C5C0053FA63685B08C0186168FDF74DFA00040D
:102C6C00000C002660E70221F1E70421EFE70621C2
:102C7C00EDE70821EBE70A21E9E70C21E7E7102152
:102C8C00E5E72021E3E74021E1E78021DFE7802130
:102C9C00490000E0012180200002FDF72DFA636855
:102CAC005B08C0186168FDF727FA0004000C0026C9
:102CBC003AE70221EFE70421EDE70621EBE70821D3
:102CCC00E9E70A21E7E70C21E5E71021E3E72021FA
:102CDC00E1E74021DFE78021DDE7002608E001265F
:102CEC0006E0012604E0012602E0012600E00126B0
:102CFC0001236A22A352023AA3520023E3662367FC
:102D0C00300070BD0024F400836ADB0706D502682E
:102D1C0053682C490B40C16A0B435360836A9B0771
:102D2C0006D50268536828490B40016B0B4353606E
:102D3C00836A5B0706D50268536824490B40416BD4
:102D4C000B435360836A1B0706D5026853682049FE
:102D5C000B40816B0B435360836ADB0606D502681C
:102D6C0093681C490B40C16B0B439360836A9B06B1
:102D7C0006D50268936818490B40016C0B439360AD
:102D8C00836A5B060BD50268536814490B40416C8F
:102D9C000B43536080235B03426C9A420AD0836AD4
:102DAC001B0606D5026853680D490B40C16C0B43DA
:102DBC0053607047026853680A490B40816C0B439F
:102DCC005360ECE7FFFFFDFFFFFFFEFFFFFFFBFF84
:102DDC00FF7FFFFFFFEFFFFFFFDFFFFFFFFFEFFFB7
:102DEC00FFFFF7FFFFFF9FFFF8B5CE46474680B5C4
:102DFC0006000D0017009946089B98463368DC695D
:102E0C002C40641B63425C41BC4220D143460133DD
:102E1C00F4D0FDF749FC4B46C01A404502D8434656
:102E2C00002BEBD1326813680B490B4013603268EE
:102E3C009368A331FF318B43936020238022B350DE
:102E4C000432B3505C330022F254032000E0002023
:102E5C00C0BCB946B046F8BD5FFEFFFF30B583B0CD
:102E6C00040088230022C250FDF71EFC05002368D5
:102E7C001B681B070ED423681B685B0717D4202321
:102E8C008022A3500432A3505C330022E254002071
:102E9C0003B030BD80210C4B00930300002289034A
:102EAC002000FFF7A1FF0028E5D00320F0E78021E8
:102EBC00054B00932B000022C9032000FFF794FF61
:102ECC000028DCD00320E3E7FFFFFF0110B5041E50
:102EDC0030D08023C358002B22D080232422E250F0
:102EEC002268136801218B4313602000FFF748F917
:102EFC00012814D0A36A002B18D1226853680E49FC
:102F0C000B405360226893682A218B43936022689C
:102F1C00136829390B4313602000FFF79FFF10BD86
:102F2C007C330022C25400F0B1FAD6E72000FFF740
:102F3C00EBFEE2E70120F2E7FFB7FFFF70B584B0CC
:102F4C00040002AA154B03CB03C26A46144B03CBF5
:102F5C0003C2636E002B06D101336A22A352023ADC
:102F6C00A35204B070BD226895686D0E07231D40F6
:102F7C009268520F134002AEF05CC0006A46D15CFE
:102F8C00FDF744F96A23E052705DC0006B46595D51
:102F9C00FDF73CF96823E052E3E7C046EC37000844
:102FAC00F4370008704770477047000070B57C23F9
:102FBC00C35C012B15D07C240126065580252423C7
:102FCC004351026813681168B1431160064A1340FB
:102FDC000022426601680B602023435102550020F9
:102FEC0070BD0220FCE7C046FFFFFFDFF8B5040010
:102FFC000B007C22825C012A1BD07C2501206055B1
:10300C0080262422A251226817681168814311601E
:10301C0022689168C900C908194391602000FFF724
:10302C008DFF23681F602023A351002363550020CC
:10303C00F8BD0220FCE70000F8B504000B007C2270
:10304C00825C012A1BD07C2501206055802624221D
:10305C00A251226817681168814311602268916837
:10306C0008480140194391602000FFF767FF23686F
:10307C001F602023A351002363550020F8BD0220BC
:10308C00FCE7C046FFFFFFF100B58BB00C2200211E
:10309C0007A800F0C3FA1822002101A800F0BEFA1C
:1030AC002C482D4B03608023DB0543600023836099
:1030BC00C3608022120602610422426103764376C9
:1030CC008376033AC26120214254436283622B32DD
:1030DC0083540363436310328354C364FDF7F2FAE1
:1030EC00002828D11D4B07930123089307A91948E1
:1030FC00FDF724FC002821D1194B079301230893D9
:10310C0007A91448FDF71AFC00281AD1154B079390
:10311C000123089307A90F48FDF710FC002813D1D1
:10312C00C0231B04029301A90A48FDF753FD002894
:10313C000DD10BB000BD00F035F9D3E700F032F93A
:10314C00DAE700F02FF9E1E700F02CF9E8E700F0FE
:10315C0029F9EEE75C040020002401402000001453
:10316C00400000188000001CF0B589B0142200212A
:10317C0003A800F053FA244B596B022211435963F4
:10318C00596B0A400192019A5A6B012632435A63D9
:10319C005B6B33400293029B1C4F01228121380050
:1031AC00FEF738F8A025ED05012203212800FEF7D3
:1031BC0031F8002210212800FEF72CF8812303930C
:1031CC00049600240594069403A93800FDF758FFD3
:1031DC001323039304960594069403A92800FDF782
:1031EC004FFFE0230393DD3B0493059403A92800D0
:1031FC00FDF746FF082303930494059403A93800B4
:10320C00FDF73EFF09B0F0BD001002400004005075
:10321C0070B586B001AE14220021300000F0FEF92A
:10322C0000250095174C184B2360A5607F23E360A5
:10323C00803323616561A561E5618023DB05236231
:10324C0065622000FEF72CFD35707570B5707560E9
:10325C00F5603561012231002000FEF783FD01236A
:10326C006A46137053709370D57001226946200022
:10327C00FEF7DEFD042214212000FEF72FFE06B01F
:10328C0070BDC046C00400200028004010B50A489C
:10329C000A4B0360E1235B02436000238360C3603D
:1032AC0003610C2242618361C361036243628362E6
:1032BC00FFF70CFE10BDC04678050020004400400E
:1032CC0010B5104C104B2360E1235B0263600023AC
:1032DC00A360E36023610C226261A361E36123625A
:1032EC006362A3622000FFF7F1FD00212000FFF7CD
:1032FC007DFE00212000FFF79FFE2000FFF756FE09
:10330C0010BDC046EC0400200038014030B59DB023
:10331C00382200210EA800F081F9102200210AA801
:10332C0000F07CF928220021684600F077F980250E
:10333C00AD002800FDF790FF0A230E93F63311938E
:10334C0000241294C03B13933F3B149315940EA886
:10335C00FDF7ACFF07230A930B94A0231B010C93DE
:10336C000D9400210AA8FEF75DFA054B0093019419
:10337C00079409956846FEF735FB1DB030BDC04675
:10338C000140020010B5FDF76FF9FFF7BFFFFFF723
:10339C00EBFEFFF779FEFFF73BFFFFF791FFFFF71F
:1033AC0075FFFEE77047000000B583B0104B196C39
:1033BC00012211431964196C0A400092009ADA6BCD
:1033CC00802149050A43DA63DB6B0B400193019BB7
:1033DC00002200210120FDF7B9FD0120FDF7E6FDDB
:1033EC000820FDF767F91020FDF764F903B000BD64
:1033FC000010024010B588B004001422002103A86C
:10340C0000F00CF92268114B9A4201D008B010BDA3
:10341C000F4B196C80204003014319641A6C024055
:10342C000192019A596B0122114359635B6B1A404B
:10343C000292029BE0230393DD3B0493002305934C
:10344C00A02003A9C005FDF71BFEDFE70024014007
:10345C000010024082B002680A4B9A4201D002B0BE
:10346C007047094BD96D802212020A43DA65DA6B78
:10347C008021C9000A43DA63DB6B0B400193019B8B
:10348C00EDE7C046002800400010024010B58AB09D
:10349C0004001422002105A800F0C0F82368284A73
:1034AC00934204D0274A934222D00AB010BD264B37
:1034BC00196C8020C001014319641A6C02400192FE
:1034CC00019A596B0122114359635B6B13400293B0
:1034DC00029BC023DB000593022306930023079372
:1034EC0008930992A02005A9C005FDF7C9FDDCE7EA
:1034FC00154BD96B802080020143D963DA6B0240F3
:10350C000392039A596B0122114359635B6B13406D
:10351C000493049B0C2305930A3B06930023079307
:10352C0008930992A02005A9C005FDF7A9FD00226A
:10353C0000211C20FDF70AFD1C20FDF737FDB4E728
:10354C000038014000440040001002407047FEE784
:10355C007047704710B5FDF79BF810BD10B5FDF71F
:10356C0061FE10BD10B50248FEF734FD10BDC0461B
:10357C0078050020024B802212059A607047C046E5
:10358C0000ED00E00D488546002103E00C4B5B5834
:10359C00435004310B480C4B42189A42F6D30B4A59
:1035AC0002E0002313600432094B9A42F9D3FFF76F
:1035BC00E1FF00F011F8FFF7E5FEFEE70020002028
:1035CC0078380008000000203C0400203C04002057
:1035DC0028060020FEE7000070B50C4D0C4E761B43
:1035EC00B61005D0002408CD01349847A642FAD174
:1035FC0000F0EAF8074D084E761BB61005D00024F3
:10360C0008CD01349847A642FAD170BD6C38000839
:10361C006C3800086C38000874380008F0B50500E8
:10362C0083074AD0541E002A44D003000322CEB292
:10363C0002E00135013C3DD301332E701342F8D129
:10364C00032C2FD9FF220A40150215432A041543D7
:10365C000F2C35D92700103F3F093E01B4461E0000
:10366C001A0010366644156055609560D5601032AE
:10367C00B242F8D10F260C2201373F012640DB194C
:10368C003700224217D03E1FB608B400A4461A00D9
:10369C001C1D644420C2A242FCD103240136B60096
:1036AC009B193C40002C05D0C9B21C191970013370
:1036BC009C42FBD1F0BD3400F4E714000300BFE7DB
:1036CC002700E0E7034B10B5002B02D0024800F0B6
:1036DC0005F810BD00000000F936000810B5010017
:1036EC0000230022002000F019F810BD70B5074D22
:1036FC00074C641BA41005D0013CA300EB58984761
:10370C00002CF9D100F066F870BDC0467438000882
:10371C00783800087047C0467047C046F0B5D646AA
:10372C004F464646C0B5264F82B0060038689246D2
:10373C0098468946FFF7EEFF224B1B680193A423A2
:10374C00019A5B00D558002D2ED06C681F2C30DCF4
:10375C00002E0FD1631C6B604B460234A4003868FA
:10376C006351FFF7D9FF002002B0E0BCBA46B14666
:10377C00A846F0BD882251462800A300EB189950AA
:10378C00873AA2408930FF300168114301608421DF
:10379C00404649005850022EDCD12B008D33FF33AC
:1037AC0019680A431A60D5E715004D35FF35D55019
:1037BC00CBE73868FFF7B0FF01204042D4E7C046A2
:1037CC003804002060380008F8B5C046F8BC08BCC6
:1037DC009E467047F8B5C046F8BC08BC9E4670477C
:1037EC0001010103070100000804020408010101A2
:1037FC0000000000000000000000000000000000BD
:10380C0000000000000000000000000000000000AC
:10381C000000000001000000020000000300000096
:10382C000400000006000000070000000800000073
:10383C000900000000000000000000000000000073
:10384C000000000001000000020000000300000066
:08385C00040000001000002030
:08386400CCCBFF7F0100000046
:08386C00D1360008E500000858
:04387400BD0000088B
:1038780001000000040000000024F4000000000023
:1038880000000000FC02002064030020CC0300209C
:103898000000000000000000000000000000000020
:1038A8000000000000000000000000000000000010
:1038B8000000000000000000000000000000000000
:1038C80000000000000000000000000000000000F0
:1038D80000000000000000000000000000000000E0
:1038E80000000000000000000000000000000000D0
:1038F80000000000000000000000000000000000C0
:1039080000000000000000000000000000000000AF
:10391800000000000000000000000000000000009F
:10392800000000000000000001000000000000008E
:103938000E33CDAB34126DE6ECDE05000B00000053
:10394800000000000000000000000000000000006F
:10395800000000000000000000000000000000005F
:10396800000000000000000000000000000000004F
:10397800000000000000000000000000000000003F
:0C3CA800000000000000000004060020E6
:040000050800359129
:00000001FF
